:020000040800F2
:1000000000180020192D0008F92B0008FB2B000810
:1000100000000000000000000000000000000000E0
:10002000000000000000000000000000FD2B0008A0
:100030000000000000000000FF2B0008012C000859
:10004000892D0008892D0008892D0008892D0008B8
:10005000092C0008892D0008892D0008892D000829
:10006000892D0008892D00080D2C0008892D000815
:10007000252C0008892D0008892D0008892D0008ED
:10008000352C00080000000000000000892D000849
:1000900000000000892D0008892D0008452C00086B
:1000A00000000000892D0008892D0008652C00083B
:1000B000752C000800000000892D0008892D00081B
:1000C00010B5064C2378002B07D1054B002B02D02E
:1000D000044800E000BF0123237010BD6800002029
:1000E0000000000038360008044B10B5002B03D088
:1000F0000349044800E000BF10BDC04600000000F6
:100100006C000020383600080023C25C0133002A4E
:10011000FBD1581E7047000002B4714649084900DF
:10012000095649008E4402BC7047C04602B471466D
:1001300049084900095C49008E4402BC7047C0462A
:10014000002243088B4274D303098B425FD3030A16
:100150008B4244D3030B8B4228D3030C8B420DD329
:10016000FF22090212BA030C8B4202D312120902B7
:1001700065D0030B8B4219D300E0090AC30B8B42F5
:1001800001D3CB03C01A5241830B8B4201D38B03A3
:10019000C01A5241430B8B4201D34B03C01A524148
:1001A000030B8B4201D30B03C01A5241C30A8B428B
:1001B00001D3CB02C01A5241830A8B4201D38B0276
:1001C000C01A5241430A8B4201D34B02C01A52411A
:1001D000030A8B4201D30B02C01A5241CDD2C3098C
:1001E0008B4201D3CB01C01A524183098B4201D308
:1001F0008B01C01A524143098B4201D34B01C01AF3
:10020000524103098B4201D30B01C01A5241C3086A
:100210008B4201D3CB00C01A524183088B4201D3D9
:100220008B00C01A524143088B4201D34B00C01AC5
:100230005241411A00D20146524110467047FFE731
:1002400001B5002000F0F0F802BDC0460029F7D04B
:1002500076E7704703460B437FD4002243088B4266
:1002600074D303098B425FD3030A8B4244D3030B3D
:100270008B4228D3030C8B420DD3FF22090212BA02
:10028000030C8B4202D31212090265D0030B8B427E
:1002900019D300E0090AC30B8B4201D3CB03C01A68
:1002A0005241830B8B4201D38B03C01A5241430B43
:1002B0008B4201D34B03C01A5241030B8B4201D333
:1002C0000B03C01A5241C30A8B4201D3CB02C01A9E
:1002D0005241830A8B4201D38B02C01A5241430A16
:1002E0008B4201D34B02C01A5241030A8B4201D305
:1002F0000B02C01A5241CDD2C3098B4201D3CB01AC
:10030000C01A524183098B4201D38B01C01A52415A
:1003100043098B4201D34B01C01A524103098B425E
:1003200001D30B01C01A5241C3088B4201D3CB0049
:10033000C01A524183088B4201D38B00C01A52412C
:1003400043088B4201D34B00C01A5241411A00D2DC
:1003500001465241104670475DE0CA0F00D0494245
:10036000031000D34042534000229C4603098B42B5
:100370002DD3030A8B4212D3FC22890112BA030A3D
:100380008B420CD3890192118B4208D389019211BF
:100390008B4204D389013AD0921100E08909C30944
:1003A0008B4201D3CB01C01A524183098B4201D346
:1003B0008B01C01A524143098B4201D34B01C01A31
:1003C000524103098B4201D30B01C01A5241C308A9
:1003D0008B4201D3CB00C01A524183088B4201D318
:1003E0008B00C01A5241D9D243088B4201D34B0033
:1003F000C01A5241411A00D20146634652415B1075
:10040000104601D34042002B00D549427047634655
:100410005B1000D3404201B5002000F005F802BD9A
:100420000029F8D016E770477047C04610B50400A1
:1004300001F0F0F9FA218900FFF782FE00F0FCF9E3
:10044000012000222100404200F0BCF9002010BD34
:100450001023064A10B5116800200B431360FFF704
:10046000E5FF02F083FA002010BDC04600200240E4
:10047000024A1368013313607047C04690000020A1
:10048000014B18687047C04690000020F8B5040082
:100490000120002C72D0636C002B06D12200403268
:1004A000A3642000137002F07FFA636CDB0600D5B2
:1004B00079E0042223689868104000D073E0626CF1
:1004C0004249114002220A43032162649A680A40A9
:1004D000012A00D06DE01968114202D1DA681204D5
:1004E00067D5DA683A49256A0A40DA60A2696F037B
:1004F0009103E269D2031143626B013A561EB24185
:100500001603E268114322690F43022A00D1042036
:10051000226B616A52003A4332430243012904D1FB
:10052000002D2CD1802149020A43C220A16AFF304C
:10053000814202D0E06A01430A438020D968400525
:100540001143D960A16B814202D0481E062807D80A
:10055000072558692940A8435861586901435961E2
:10056000DB681C490B409A4211D100200322A06491
:10057000636C93431A00012313436364F8BD202086
:10058000656C28436064A06C0143A164CDE712222E
:10059000636C012093431A00102313436364A36C1C
:1005A0000343A364EAE71023626C012013436364EE
:1005B000E4E71821DA688A43A1680A43DA60196916
:1005C000626889008908114319618AE7FDFEFFFF0F
:1005D0001902FEFFE7FF3F830368186C70477047FE
:1005E000704700000422036870B5196804001142C6
:1005F00002D05968114206D108221968114228D048
:100600005968114225D0626CD20604D48022616CF4
:1006100092000A436264C022D9681201114212D1C9
:10062000226A002A0FD11A6812070CD59A6852075D
:100630003CD40C215A688A435A60636C204A1A40A1
:10064000012313436364200001F0DEFF0C222368C2
:100650001A60802523681A682A420CD05B682B42F6
:1006600009D08023626C5B02134363642000FFF7B0
:10067000B6FF23681D60102223681968114214D048
:100680005968114211D0626B012A02D0DA68D20790
:1006900008D50222A16C20000A43A26410221A602D
:1006A000FFF79EFF102223681A6070BD2023626C42
:1006B000134363640123A26C1343A364C3E7C046DE
:1006C000FEFEFFFFF7B500230400019340342378BA
:1006D00005000220012B2BD001232A68AE6B906805
:1006E000237040075AD430484F680D6887423FD086
:1006F000AB4018008023976A5B05384390629E42A6
:100700000FD0013E062E0CD98B6807215069084096
:10071000834206D050690B408843506150690343BF
:1007200053612B00103B022B03D9002000232370C0
:10073000FEBD1E4A80231168102D15D0112D15D035
:100740005B040B431360102DEFD1194B1949186846
:10075000FFF7F6FC0A2358430190019B002BE4D0DD
:10076000019B013B0193F8E71B04EAE7DB03E8E7A1
:10077000AB40916A99432B00103B9162022BD4D875
:100780000A4B1A68102D05D0112D05D00A490A40D0
:100790001A60CAE70949FAE70949F8E72022696CB3
:1007A00018000A436A64C1E70110000008270140ED
:1007B0000000002040420F00FFFFFFFEFFFF7FFF11
:1007C000FFFFBFFF70B58901002814DA0F23C0B204
:1007D0000340083B114A9B089B009B1803221040D2
:1007E0009040FC321500114085408140DC69AC43EB
:1007F0002143D96170BD032583082840A840FC35FA
:100800002E00074A9B009B18C02286402940814049
:1008100092009C58B44321439950EBE700ED00E06F
:1008200000E100E01F2318401E3B8340014A136093
:100830007047C04600E100E0094A431E0120934290
:100840000DD8C021074A08485360036A09061B02F5
:100850001B0A0B430362002007239060136070475C
:10086000FFFFFF0010E000E000ED00E070B50400C5
:100870000120002C28D002232068A51CEB770268F9
:10088000124BA1681A4063680B43E1680B4321696E
:100890000B4361690B43A1690B43E1690B431343AC
:1008A00003600B4B1421C018FFF74AFC094B800072
:1008B0002064E36300200123A062E06220636063A0
:1008C000A063E418EB77E07770BDC0460FC0FFFF70
:1008D000F8FFFDBF0000024070B5841CE37F022BCF
:1008E00004D004238363033B180070BD0E2103680A
:1008F000056C1A688A431A600122196891431960CD
:100900001100A940C36B5960E27700248318426B41
:10091000DC771300A242E7D090472300E4E7F8B564
:1009200004273E00016CC26B8E40156803681C688A
:100930002E420DD03C420BD01968890602D41968AA
:10094000B9431960C36A5660002B19D0984717E065
:1009500002273E008E402E4213D03C4211D019682F
:10096000890606D40A241968A14319600121C31914
:10097000D97756600022431CDA77836A9342E5D127
:10098000F8BD082637008F403D42F9D03442F7D0F9
:100990000E251C68AC431C6001231C008C40546075
:1009A000821C8363D3770022C318DA77036BE5E7F1
:1009B000F0B50B6887B0029300230191029ADA40E8
:1009C00001D107B0F0BD01229A4003920399029A27
:1009D0000A40009200D188E0019A10215268160066
:1009E0008E43022E0ED107251D40AD000139A940CE
:1009F000DC08A4000419276A8F4301990969A940FA
:100A00000F43276203245F00BC40E4430568013EB6
:100A10002540AC4603251540BD4061460D430560A9
:100A2000012E0FD801998668CD682640BD40354318
:100A300085604668039915098E4301210D409D404C
:100A400035434560C56801992C408D688021BD40C3
:100A500049052C43C4600A4247D00121244C032697
:100A6000A5691E400D43A561A4699D080C4005942D
:100A7000059C0F241F49AD00B6006D18B4409021AD
:100A8000AF68C905A7430024884208D01A49013439
:100A9000884204D019490434884200D1033CB44050
:100AA00000993C430E00AC60154CCD4327683E4393
:100AB000D10301D43E002E4026606768009E3E436D
:100AC000910301D43E002E406660A768009E3E431D
:100AD000D10201D43E002E40A660E668009F374355
:100AE000920201D42E403700E760013366E7C0462A
:100AF00000100240000001400004004800080048C7
:100B00000004014003689A69920701D500229A62A5
:100B100001229969114202D199690A439A61704789
:100B200010B50023CA0708D5030041331A782823DB
:100B30001A401A33282A00D0B0338A0708D5020099
:100B40002824413212782240A24217D14422134372
:100B50004A0701D5B822134311220A40112A01D1B4
:100B60007F32134312221140914201D14E3213437E
:100B700001680A6800209A430A6010BDF422E6E783
:100B800070B504000120002C3FD0250041352B78A2
:100B9000DBB2002B05D1220040321370200001F09F
:100BA00039FF242301212B702368E0681A68A668A6
:100BB0008A431A6061681A4A0A401A619968194A98
:100BC00011409960012821D18021090231439960A7
:100BD0005868154901435960D96800200A40DA6015
:100BE000616922690A43A16909020A43DA60216A3C
:100BF000E2690A431A60012219680A431A60202335
:100C000060642B7020634234207070BD842109021F
:100C1000314399600228DBD1802109015960D7E76F
:100C2000FFFFFFF0FF7FFFFF00800002036810B5A9
:100C300099691A68436B002B00D0984710BD704724
:100C40007047030070B5002542331D70013B1A78D0
:100C50000400292A0DD1013A1A70212301210363CE
:100C6000FFF75EFF230040331D702000FFF7E7FF12
:100C700070BD1A782A2AFBD1023A1A702223022167
:100C80000363FFF74DFF230040331D702000FFF783
:100C9000D7FFEDE770477047174B10B5C3620023CD
:100CA00002000363040020204132107053700422BC
:100CB0006363114211D0636A591C61622168496AF9
:100CC0001970238D002B08D0013B2385638D013BD8
:100CD0009BB26385636C1A43626407212000FFF7AF
:100CE0001FFF102223682000DA6123000022403316
:100CF0001A70FFF7D0FF10BD0000FFFF704770476C
:100D00000200002370B50500423213702F4A4135AE
:100D1000C2624385436C0400194341642B78282B3D
:100D200005D02B78292B02D02B782A2B22D1032116
:100D30002000FFF7F5FE28232B7000232363244BAC
:100D40008022210063632368D2011E68403116406F
:100D50001A681AD01F4802401A60A06B1E4B4363EA
:100D600000230B70FFF7B8FD002802D0A06B436B87
:100D7000984770BD0721FFF7D3FE2B78602B01D079
:100D800020232B7000232363DAE780200002024037
:100D90000DD01A68114802401A60E06B0E4B436395
:100DA0000E70FFF799FD0028E3D0E06BDFE72B78AA
:100DB000602B06D1403B2B7020000A70FFF79FFF8D
:100DC000D7E70A702000FFF799FFD2E70000FFFF86
:100DD000D90E0008FFBFFFFF03110008FF7FFFFFD0
:100DE000F8B5040020228027250003680E00DA6190
:100DF000183ADA610721FFF793FE23683F025A6829
:100E000033493A435A605A6820000A405A60FFF753
:100E100079FE216841350B685B0402D40B683B42C4
:100E200007D02B78212B34D1A36B1B685B689BB256
:100E30006385638D002B03D00423626C13436364CA
:100E40000422164210D0636A496A581C6062197005
:100E5000238D002B08D0013B2385638D013B9BB282
:100E60006385636C1A436264220000234232236369
:100E700013706363636C002B0DD0616C2000FFF76F
:100E80003FFF2B78282B03D131002000FFF704FF10
:100E9000F8BDE36BC9E72200E06A0E4940328842A0
:100EA00007D0E1622021200029701370FFF7F3FEC4
:100EB000EEE72021287829701370222803D1200022
:100EC000FFF7BEFEE4E72000FFF7B9FEE0E7C0460B
:100ED00000E800FE0000FFFF0300F0B540331700FC
:100EE0001A78040085B00D000220012A26D00122C4
:100EF0001A700F32114240D017423ED0638D002B42
:100F000034D18023E26A9B049A4202D0E26A9A4278
:100F100016D1230041331B78282B11D12900200042
:100F2000FFF7BAFE20231D4205D01F4203D029003F
:100F30002000FFF755FF00204034207005B0F0BDC1
:100F4000E16A584A236891420DD02200413212785A
:100F5000292A08D1193ADA612000FFF7D3FD2000D1
:100F6000FFF76FFEDEE71022DA61DBE72368DA6164
:100F70000423626C13436364D4E70422154219D03E
:100F8000174217D0638D002B0CD0636A5A1C626223
:100F90002268526A1A70238D013B2385638D013BC1
:100FA0009BB26385638D002BBCD1E26A3D4B9A42B4
:100FB000D5D1B7E70820054250D007424ED02200D5
:100FC0002821413212780A402168282A42D18E69AC
:100FD0008B69D6321B0C1A4001928A68CB68F603E3
:100FE0000393230040330093E368F60F022B28D1CC
:100FF0009205930D019A0293DB095A4013000622D1
:10100000134013D1A26C9446012294446246A26418
:10101000A26C022A00D085E7009AA364C86113700D
:10102000029A31002000FFF735FE7BE70421200003
:10103000FFF776FD0023009A1370039AFE331A40DF
:10104000EFE704212000FFF76BFD0023009A1370E7
:10105000019AE6E70022C8611A7063E702231D4285
:1010600000D15FE71F4200D15CE7638D002B0DD0FC
:10107000636A2268591C61621B789362638D013B2D
:101080009BB26385238D013B23854BE78023E26A76
:101090005B049A4200D162E7E36A002B00D15EE76D
:1010A00040E7C0460000FFFF70B5802503686D0073
:1010B00099691A68294206D0140604D50124466CA1
:1010C00034434464DD618025ED00294206D01406D6
:1010D00004D50824466C34434464DD618024A400B4
:1010E000214206D0120604D50222416C0A43426412
:1010F000DC610B23426C1A4202D0416CFFF700FE08
:1011000070BD8023406A1B02026810B551680B4312
:1011100053600023826B5363C26B536303004133FC
:101120001A78602A04D1403A1A70FFF7E8FD10BD22
:10113000FFF7E4FDFBE70000F0B50400413422783E
:101140000300D2B20220202A18D11D0040352E788B
:10115000012E13D01B68223020701E68233886436E
:101160001E601E68064F3E401E601E6831431960B7
:10117000196808431860002022702870F0BDC0462E
:10118000FFEFFFFFF0B5050041352A780300D2B22A
:101190000220202A17D11C0040342678012E12D0BC
:1011A0001B68223028701E68233886431E601E6824
:1011B000054F09023E403143196019680843186021
:1011C00000202A702070F0BDFFF0FFFFF0B503682B
:1011D00085B00500DB0733D42B689B0700D58AE078
:1011E0002B681B0700D5CAE02B685B0700D5EDE034
:1011F0002B68DB061AD56A69BC4C0423012A00D08F
:1012000059E1616B02260B436363636B1A436263AC
:10121000FFF736F90700636B334200D144E1F82150
:10122000626BAB698A43DB00134363632B689B06E5
:1012300000D567E1696A002900D0A4E1002018E028
:101240000C21AA4C62680A40042A0BD063680B4048
:10125000082B10D1C0226368520213408022520230
:10126000934208D123689B03B6D56B68002BB3D19A
:10127000012005B0F0BD6B68012B13D180232268DB
:101280005B0213432360FFF7FBF880260700B602DA
:1012900023683342A0D1FFF7F3F8C01B6428F7D9C5
:1012A0000320E6E7002B16D12368914A80261340DD
:1012B000236023688F4AB60213402360FFF7E0F8EB
:1012C00007002368334200D186E7FFF7D9F8C01B37
:1012D0006428F6D9E4E7052B05D180232268DB02D8
:1012E00013432360CAE72368814A134023602368BD
:1012F000804A1340C6E70C227C4C636813420BD033
:1013000063681340082B15D1C02263685202134052
:101310008022120293420DD123689B0702D5EB680D
:10132000012BA5D1F82122682B698A43DB001343E6
:10133000236055E7EA680123002A0FD022680226BD
:1013400013432360FFF79CF8070023683342E9D179
:10135000FFF796F8C01B0228F7D9A1E722680226FA
:101360009A432260FFF78CF807002368334200D1CC
:1013700036E7FFF785F8C01B0228F6D990E7EA693F
:1013800001235A4C002A10D0626A0226134363627A
:10139000FFF776F80700636A334200D024E7FFF7CF
:1013A0006FF8C01B0228F6D97AE7626A02269A43D0
:1013B0006262FFF765F80700636A334200D113E702
:1013C000FFF75EF8C01B0228F6D969E780220021EA
:1013D000464C5205E3690091134208D1E369134377
:1013E000E361E36913400393039B01230093802788
:1013F000414E7F0033683B4206D0AB68012B13D1CE
:10140000226A1343236230E033683B433360FFF7C3
:1014100037F8019033683B42EFD1FFF731F8019B79
:10142000C01A6428F6D93BE70122002B14D1236AA5
:10143000022793432362236A033293432362FFF715
:101440001FF80600236A3B4225D0FFF719F82B4B03
:10145000801B9842F6D923E7052B0BD1216A013B6B
:101460000B432362236A1A432262FFF709F802271B
:1014700006000DE0236A934304222362236A934308
:10148000C0E7FEF7FDFF1D4B801B984200D907E720
:10149000236A3B42F5D0009B012B00D0A8E6E3690C
:1014A000174A1340E361A3E6FEF7EAFFC01B0228D8
:1014B00000D8B0E6F4E6053203D1626B9A4362636A
:1014C000ADE6626B0226134301226363636B9343B1
:1014D0006363FEF7D5FF0700636B334200D1A5E6D7
:1014E000FEF7CEFFC01B0228F6D9D9E60010024055
:1014F000FFFFFEFFFFFFFBFF0070004088130000AE
:10150000FFFFFFEF0C21464C62680A408A4209D077
:1015100063680B40082B0ED1C0226368520213404F
:10152000934208D1636BDB0300D483E62B6A012B63
:1015300000D09DE67EE62B6A002B11D08026636BDF
:10154000760233436363FEF79BFF0700636B33420E
:1015500000D06FE6FEF794FFC01B0228F6D99FE685
:10156000636B304A802613406363FEF789FF0700F0
:101570007602636B334200D15CE6FEF781FFC01B4D
:101580000228F6D98CE60C22254C63681340082B00
:1015900000D16DE62368244A1340236002292FD12D
:1015A000FEF76EFF80260700B6042368334221D180
:1015B0000F22E36A93432A6B1343E362A96AEB6A3F
:1015C00062680B43194980250A40134363608023F6
:1015D00022685B0413432360FEF752FF0600AD044C
:1015E00023682B4200D029E6FEF74AFF801B022821
:1015F000F6D955E6FEF744FFC01B0228D5D94FE6C1
:10160000FEF73EFF80250600AD0423682B4200D183
:1016100014E6FEF735FF801B0228F6D940E6C046E7
:1016200000100240FFFFFEFFFFFFFFFEFF7FC2FF33
:1016300070B51C4C88B010222100684601F0D0FB28
:10164000210004AD10221031280001F0C9FB0C224A
:10165000154E73681A40082A08D00C2A03D0042AB1
:101660001ED1124800E0124808B070BD0F206A4633
:10167000990C0140545CF26A0240A95CC0228020AF
:10168000520213404002834204D10848FEF758FD3D
:101690006043E9E7934201D10548F7E70548F5E7DC
:1016A0000448E1E750360008001002400024F4002E
:1016B000006CDC0200127A00F7B501224F4C0600E4
:1016C0002368019113408B421FD33268930728D4BB
:1016D000D3072ED40123226801991A40914200D2E7
:1016E0007EE03368464C5B0700D580E0FFF7A0FF43
:1016F0006368444A1B061B0FD35CD840424B1860FA
:101700000020FEF793FE00200AE02368019993432E
:101710000B43236023681340019A9A42D5D00120DD
:10172000FEBDF02036494B688343B06803434B60ED
:10173000CEE77268324D012A1AD12B689B03EED591
:1017400003216B688B4313436B60FEF799FE73684C
:101750000700012B1CD10C226B681340042BB9D05D
:10176000FEF78EFE294BC01B9842F4D90320D7E721
:10177000022A03D12B689B01E2D4D0E7032A03D1CC
:101780006B6BDB03DCD4CAE72B689B07D8D4C6E7B6
:10179000022B0BD10C226B681340082B9AD0FEF75A
:1017A0006FFE1A4BC01B9842F4D9DFE7032B11D010
:1017B0000C226B68134200D18CE7FEF761FE134BDD
:1017C000C01B9842F4D9D1E7FEF75AFE0F4BC01B5D
:1017D0009842CBD80C226B6813409342F4D179E73E
:1017E00022689A43226022681A4298D179E7636896
:1017F000074A1340F2681343636077E70020024012
:1018000000100240B03600080000002088130000DD
:10181000FFF8FFFF014B18687047C046000000202A
:10182000044B054A5B685B055B0FD35C034A106899
:10183000D840704700100240C03600080000002069
:10184000F0B5036885B00500DB0328D580220021B0
:10185000404C5205E3690091134208D1E3691343F8
:10186000E361E36913400393039B01230093802703
:10187000394E7F0033683B4238D0C022236A920041
:101880001340364E44D1236A1E406B681E43009BB2
:101890002662012B03D1E369314A1340E3612A68D0
:1018A000D30706D503202B490B6B8343A86803435A
:1018B0000B63930606D5102026490B6B8343E8681B
:1018C00003430B63930306D5802022490B6B8343AC
:1018D000686903430B630020530517D540211D4A57
:1018E000136B8B4329690B4313630FE033683B434E
:1018F0003360FEF7C5FD019033683B42BDD1FEF772
:10190000BFFD019BC01A6428F6D9032005B0F0BDC5
:1019100069680A409342B6D08023226A206A110087
:101920005B0203432362236A0E4831400340236273
:101930002162D307A7D5FEF7A3FD07000222236A81
:101940001342A0D1FEF79CFD074BC01B9842F5D96E
:10195000DBE7C0460010024000700040FFFCFFFFC4
:10196000FFFFFFEFFFFFFEFF881300000122036867
:10197000D96800201143D96019680A431A6070477A
:1019800070477047704770470222036810B51969A5
:10199000040011420ED0D96811420BD0053A1A61E9
:1019A0009B69043202779B0700D179E0FFF7E9FFDA
:1019B00000232377042223681969114210D0D968C3
:1019C00011420DD0093A1A61073222779A69C02371
:1019D0009B0020001A4269D0FFF7D3FF0023237732
:1019E00008222368196911420ED0D96811420BD020
:1019F000113A1A61DB690D32227720009B075BD018
:101A0000FFF7BFFF002323771022236819691142D3
:101A100010D0D96811420DD0213A1A6119322277BB
:101A2000DA69C0239B0020001A424BD0FFF7A9FFC0
:101A300000232377012223681969114207D0D9684E
:101A4000114204D0033A1A61200000F09FFD802269
:101A500023681969114208D0D968114205D0023AA9
:101A6000FF3A1A61200000F079F9402223681969D1
:101A7000114207D0D968114204D0813A1A6120007E
:101A8000FFF781FF202223681969114207D0D96826
:101A9000114204D0413A1A61200000F05EF910BDF5
:101AA000FFF76EFF2000FFF76DFF81E7FFF768FF8C
:101AB0002000FFF767FF91E7FFF762FF2000FFF7C5
:101AC00061FF9FE7FFF75CFF2000FFF75BFFAFE7D9
:101AD0001D4A10B50368904206D08024E405A04258
:101AE00002D01A4CA0420CD17024A3434C6823436B
:101AF00090420FD08024E405A0420BD0134CA042AA
:101B000008D0134CA04205D0124CA04202D0124C77
:101B1000A04203D1114C2340CC6823438024A3432B
:101B20004C69234303608B68C3620B6883629042F5
:101B300005D0084B984202D0074B984201D10B695F
:101B400003630123436110BD002C014000040040E9
:101B5000002000400044014000480140FFFCFFFF1E
:101B600070B504000120002C14D025003D352B78E1
:101B7000DBB2002B05D122003C321370200000F0B4
:101B8000B9FF022320682B70211DFFF7A1FF01235D
:101B900000202B7070BD000030B58468034D0A43EF
:101BA0001B022C4013432343836030BDFF00FFFF23
:101BB000F8B5050002233C352A7804001800012AF4
:101BC00019D02600012720683D362F7033708368B6
:101BD0004F4A134083600B68402B00D16FE016D84A
:101BE000102B00D187E007D8002B00D17DE0012326
:101BF000002033702870F8BD202B00D181E0302BFD
:101C0000F5D17022836893431A00372355E0702B77
:101C100033D01BD8502B3BD0602BE8D110244B681D
:101C2000CA68016A3B4FA1430162846912033C40C8
:101C30002243A024016A82617022A1431B010B434D
:101C40000362836893431A00672336E080225201BF
:101C500093420DD0802292019342C8D1CB684A684A
:101C60008968FFF799FF80232268DB0191680CE007
:101C70000722836893438360B9E7CB684A68896821
:101C8000FFF78AFF7721226893680B439360AEE7E2
:101C90004A68CB68016A046A1B01BC43F0270462EE
:101CA0008469BC4323430A24A1430A43836102623B
:101CB0007022836893431A0057231343DBE74A6873
:101CC000CB68016A046A1B01BC43F0270462846983
:101CD000BC4323430A24A1430A4383610262702266
:101CE000836893431A004723E7E77022836893438E
:101CF0001A000723E1E77022836893431A00172331
:101D0000DBE77022836893431A002723D5E7C04698
:101D10008800FFFFFF0FFFFF30B504003C3422783E
:101D200003000220012A17D01D001B683D352870D2
:101D30005A686E3082435A605A680868496802439C
:101D400080205A609A6882439A609A6800200A4309
:101D50009A6001232B70207030BD704770470000DF
:101D6000036806491A686A300A401A609A68233183
:101D7000FF318A439A60202303707047DFFEFFFF24
:101D8000F0B506006A36347803000220202C35D1E5
:101D90000138002932D0002A30D080259C686D019E
:101DA000AC4204D11D69002D01D1014226D11D0094
:101DB00068352F780220012F20D00138287059650E
:101DC000190058310A804A8080225201944218D169
:101DD0001A69002A13D113491A005C3211800020BD
:101DE0002222D8661B6832709968213A0A4328700B
:101DF0009A609022196852000A431A60F0BDFF21D0
:101E0000EAE7002C04D11A69002AF8D07F21E3E721
:101E1000802252059442E2D11A69002AF6D03F216D
:101E2000DAE7C046FF01000070477047406A0023B0
:101E3000020010B55A321380083A1380FFF7F5FFFD
:101E400010BD000070B504000568C26983680069B0
:101E50002968034360693F4E03433F4813430140F1
:101E60000B432B606B683D49206A0B40E1680B43D4
:101E70006B60A369A9680343394801400B43AB6019
:101E800080231B02B54210D103203649096B014063
:101E90003548405C9A4213D0082858D8FEF746F9D6
:101EA000375742574B575757500030498D424CD106
:101EB0009A422CD1FFF7B4FC636840005B080BE04A
:101EC000082821D8FEF728F9F62005201820202020
:101ED0001B0063685808264BC0186168FEF730F98C
:101EE00083B200200F22190091430A001B072168CA
:101EF0005B0F1343CB6070BDFFF79AFBDCE76368B1
:101F0000580880235B02E7E701200023EAE7FFF798
:101F100087FC61684B081818FEF712F980B2E86078
:101F20000020E8E76168134B4808C018FEF708F97D
:101F300080B2F060F4E7FFF77BFB61684B08F4E7E1
:101F4000802361681B024808EFE79A42DCD0012039
:101F5000D1E7C04600380140F369FFEFFFCFFFFF34
:101F6000FFF4FFFF001002407036000800440040FC
:101F70000024F40000127A00436A30B5DA0706D56F
:101F80000168284C4A682240846A22434A609A07C2
:101F900006D50168244C4A682240C46A22434A603C
:101FA0005A0706D50168214C4A682240046B224337
:101FB0004A601A0706D501681D4C4A682240446BE6
:101FC00022434A60DA0606D501681A4C8A68224024
:101FD000846B22438A609A0606D50168164C8A688B
:101FE0002240C46B22438A605A0610D50168134D03
:101FF0004A68046C2A4022434A6080225203944279
:1020000005D14A680E4C2240446C22434A601B06AC
:1020100006D502680B4953680B40816C0B43536033
:1020200030BDC046FFFFFDFFFFFFFEFFFFFFFBFFD0
:10203000FF7FFFFFFFEFFFFFFFDFFFFFFFFFEFFF70
:10204000FFFF9FFFFFFFF7FFF8B504000E0015002C
:102050001F002268D36933409B1B59424B41AB425E
:1020600001D0002018E0069B0133F3D0069B002B23
:1020700013D123680C491A6803200A401A609A6831
:10208000A331FF318A439A60220020236932137002
:102090005370002368342370F8BDFEF7F1F9069BF6
:1020A000C01B8342D5D2E4E75FFEFFFFF0B5070017
:1020B00085B0039369373B7804000D0016000220B9
:1020C000202B46D10138002943D0002A41D080235B
:1020D000A2685B019A4204D12369002B01D101421D
:1020E00037D1230068331A780220012A31D0012227
:1020F0001A700023E36621333B70FEF7C1F9230019
:1021000050331E805E80802602907601210052317D
:102110000A8892B2002A0DD1039B4021009320002F
:10212000029BFFF791FF002812D1202368343B70F7
:1021300020700EE00B880022013B9BB20B80039BBA
:10214000802100932000029BFFF77EFF002802D031
:10215000032005B0F0BDA3682268B34208D123690B
:10216000002B05D12B880235DB05DB0D1385CDE770
:102170002B7801351385C9E7F0B51F0003006A33DA
:1021800016001A78040085B00D000220202A39D1EB
:102190000138002936D0002E34D08022A1685201A7
:1021A000914204D12269002A01D105422AD122009C
:1021B000683211780220012924D0012111700022F7
:1021C000E26622321A70FEF75BF923008021A268D2
:1021D00058331E805E800390490104338A4215D132
:1021E0002269002A10D1234A1A801E8822005A32FE
:1021F000108880B2002819D1230020226A33683465
:102200001A70207005B0F0BDFF22EDE7002A04D15E
:102210002269002AF8D07F22E6E7802149058A4218
:10222000E3D12269002AF6D03F22DDE7138820217E
:10223000013B9BB2138020000097039B0022FFF715
:1022400003FF002813D1A2682368110080225201E5
:10225000914207D12269002A04D19B8C33402B8004
:102260000235C3E79B8C33402B700135BEE703205A
:10227000C8E7C046FF01000073B500260400C6662B
:10228000FEF7FEF8164A23680500934208D02200A4
:10229000202300206932683413705370207076BD9B
:1022A0001B681B070FD423681B685B07EFD58021D1
:1022B0000C4B00220093C9032B002000FFF7C4FE43
:1022C00000280BD1E3E78021064B320000938903FD
:1022D00003002000FFF7B8FE0028E4D00320DEE76B
:1022E00000380140FFFFFF0170B5041E01D101203D
:1022F00070BD050069352B78DBB2002B04D10200DC
:102300006832137000F012FC2423012122682B7024
:10231000136820008B431360FFF794FD0128E6D07B
:10232000636A002B02D02000FFF726FE23680849CD
:102330005A6820000A402A215A609A688A439A60A3
:10234000012219680A431A60FFF796FFD0E7C046DA
:10235000FFB7FFFF030030B569331B78020002208E
:10236000212B0FD114005234238811689BB2002B0B
:1023700009D10A687E3082430A604022086802431D
:102380000A60002030BD802095684001D36C8542F2
:102390000DD1106900280AD118880233C005C00D7C
:1023A0000885D3642388013B9BB22380E9E7581C4E
:1023B000D0641B780B85F5E74021026810B51368DF
:1023C0008B4313600300202269331A70FFF72CFD42
:1023D000002010BD020070B56A321178036822290E
:1023E0002DD1010080245C310D88998C6401294035
:1023F0008568436DA5421ED10469002C1BD119804C
:1024000002334365010000245A310B88013B9BB223
:102410000B80A3420DD103680C4D19682940196047
:1024200099682335FF35A94399602023137000F084
:1024300047FA200070BD5C1C44651970E2E7082271
:10244000996902240A439A61F3E7C046DFFEFFFF61
:102450000F210268F8B5D36904001940106808D14B
:1024600020252B4205D0284203D02000FFF7B2FFE1
:10247000F8BD9668002961D0012135000D4003D1D7
:1024800090277F00384259D00B4205D0C60503D5AE
:102490001162E66E3143E16602210B4206D0002D47
:1024A00004D01162E66E49183143E16604210B4203
:1024B00006D0002D04D01162E66E02393143E16688
:1024C000190708D5810601D4002D04D00821116216
:1024D000E26E1143E166E26E002AC9D02022134267
:1024E00004D0104202D02000FFF774FFE36E2000FA
:1024F0001B0704D423689D6840231D401AD0FFF7B2
:102500002FFC402123689A680A420FD09A68606EB7
:102510008A439A60002809D01A4B4363FEF7DCF91E
:102520000028A5D0606E436B9847A1E72000FFF715
:102530007CFC9DE7FFF779FCE56699E7802149037C
:102540000B420BD0750209D511622200202369329B
:1025500013702000537000F017F889E780221342AF
:1025600005D0104203D02000FFF7F4FE80E74022A0
:10257000134200D17CE7104200D179E72000FFF739
:102580001BFF75E72D1E000870470000084B02680E
:1025900010B59A420AD1074C200000F0C9F9064B49
:1025A0001870200000F0C6F9044B187010BDC0462A
:1025B00000040040E0010020FC0100209400002005
:1025C00000B5B3B00A000100684600F033FC0028F3
:1025D00008DD6846FDF798FD034B82B26946034863
:1025E000FFF764FD33B000BDFFFFFF006C0100206A
:1025F0000FB407B504A901C90191FFF7E1FF03B0CA
:1026000008BC04B018470000036810B51B685B07DE
:1026100003D5FDF7E1FF014B186010BDDC01002080
:1026200030B5102499B0342200210BA800F0E1FB52
:102630002200002101A800F0DCFB1822002105A8DF
:1026400000F0D7FB012532230BA80B930F941194B4
:102650000E9513951095FEF7B9FD072300240193FD
:102660002900043B01A8029303940494FFF724F883
:10267000212305A8059307940894FFF7E1F819B002
:1026800030BD0000F0B58BB0FDF7E2FEFFF7C8FFEC
:102690008020774BC00359690C26014359615A6960
:1026A0000024024080200192019A5969800201436E
:1026B00059615A690427024080200292029A59699E
:1026C000C0020143596101215A6902400392039AF1
:1026D0005A690A200A435A6100225B690B40009341
:1026E0001100009BFEF76EF80A20FEF79BF83200FF
:1026F000002106A800F07DFB5E4D5F4B28002B609B
:1027000001232B61C223FF33AB62C13BFF3B6C60F3
:10271000AC60EC606F61AC61EC612C626C62EC628D
:102720002C636B63FDF7B2FE80235B0107930723E5
:1027300006A9280006970893FDF7C4FF4F4D504B9C
:1027400028002B60E1235B026B60AC60EC602C61C5
:102750006E61AC61EC612C626C62FFF7C5FD494FA4
:10276000494B38003B6096239B017B60BC60FC605A
:102770003C617E61BC61FC613C627C62FFF7B4FD40
:102780002100102206A800F034FB2100082204A832
:1027900000F02FFB3D4A3E4B100013603D4B946010
:1027A00053603D4B1461D3609461FFF7D9F98023E6
:1027B00006A95B0135480693FFF7FAF904A93348E7
:1027C00004940594FFF7A8FA344E354B300033607B
:1027D000344BB460736001233461F3607461B4619D
:1027E000F4613462FEF7CCF921003000FEF7A4FC5E
:1027F00021003000FEF7C6FC2448FFF7B7F82A4C4A
:102800003900200000F066F8200000F083F8202650
:102810002A68D3693342FCD06423012206A9280028
:10282000FFF7AAFC6B46187E32380528F0D8FDF772
:102830007DFC03090B0F13171C4B19781C48FFF77D
:10284000D7FEE5E71B4BF8E7200000F063F8DFE771
:10285000200000F051F8DBE71748FFF7C9FED7E783
:10286000144B16481A78114B1978FFF7C1FECFE7C1
:1028700000100240E4020020002401406C0100200E
:10288000003801407402002000440040280100206C
:1028900000040040ED020000FFF90000DC00002011
:1028A000005400400E090020E0010020FC0100203F
:1028B0008536000894000020743600087B36000836
:1028C00010B50100014800F037F810BDE00100200C
:1028D0007047000010B504001E2321600800132279
:1028E0000449FFF7E3FB21000A2208312068FFF7C3
:1028F00047FA10BD9D36000810B51E231322044967
:102900000068FFF7D3FB4342584140B210BDC046B8
:102910008A36000810B51E23132204490068FFF709
:10292000C5FB4342584140B210BDC0469D36000829
:1029300080887047C088704770B5056804008D4274
:1029400012D1437AC02B09D140890A21FDF782FCBC
:102950000A21A080A089FDF77DFCE08021000A22E9
:1029600008312800FFF70CFA70BD000007B5012000
:102970000C4B99690143996180219A69490502408C
:102980000092009ADA6903300A43DA610022DB69B7
:102990000B4001931100019BFDF714FF0420FDF78C
:1029A00041FF07BD0010024010B5040088B014229A
:1029B000002103A800F01DFA144B22689A4223D18B
:1029C0008020134B800099690143996180219A69A5
:1029D000890202400192019A5A6990200A435A6181
:1029E0005B69C0050B400293029B122303A903936A
:1029F0000F3B0493FDF7DCFF00220C201100FDF7D4
:102A0000E1FE0C20FDF70EFF08B010BD00240140D0
:102A10000010024030B5050089B01422002103A83F
:102A200000F0E7F92C4B2A689A4252D180212B4CB6
:102A3000C90262692A480A436261636903220B4042
:102A40000193019BC0230393AE3B049303A9113B65
:102A5000059306920793FDF7ABFF8021E269890396
:102A60000A43E261E3691F4C0B400293029B1E4B39
:102A700080222360002320006360A360E260236162
:102A80006361A361E361FDF7F1FE002801D0FFF768
:102A90001FFF164BEC636562154C802223601023E8
:102AA000636000232000A360E26023616361A3618F
:102AB000E361FDF7DBFE002801D0FFF709FF0022EC
:102AC0001720AC6311006562FDF77CFE1720FDF74F
:102AD000A9FE09B030BDC0460054004000100240BD
:102AE0000004004830020020300002401C00024078
:102AF0009800002007B50B4B02689A4210D10220C3
:102B0000094AD1690143D161D3690022034001938D
:102B10000E301100019BFDF755FE1020FDF782FEDF
:102B200007BDC046000400400010024010B504007C
:102B30008AB01422002105A800F05BF923682B4A13
:102B400093422AD180202A4BC0019969014399619F
:102B500080219A69890202400192019A5A69902063
:102B60000A435A615B69C0050B400293029BC02374
:102B7000DB000593022306930133089305A9023B6A
:102B80000993FDF715FF00221B201100FDF71AFE27
:102B90001B20FDF747FE0AB010BD164A9342FAD13A
:102BA0008022134B9202D96990201143D961D969CF
:102BB000C0051140039103995969114359615B693B
:102BC00005A91A400492049B0C2305930A3B069323
:102BD00001330893023B0993FDF7EAFE00221C2013
:102BE0001100FDF7EFFD1C20D3E7C046003801407F
:102BF00000100240004400407047FEE770477047F5
:102C000010B5FDF735FC10BD7047000010B5034846
:102C1000FDF785FE0248FDF782FE10BD98000020FA
:102C20003002002010B50248FDF7DCFC10BDC046A4
:102C3000E402002010B50248FEF7A6FE10BDC04613
:102C400028010020064810B503689A69E023DB00DC
:102C50001A4202D0FEF728FA10BDFDF7E7FFFBE7A6
:102C6000DC00002010B50248FFF7F2FB10BDC046A3
:102C70006C01002010B50248FFF7EAFB10BDC0460A
:102C8000740200200A4B10B519680200002901D116
:102C9000084919606946186882188A4206D900F006
:102CA00075F80C2303600120404210BD1A60FCE758
:102CB00084000020340300200121114B11481A68C0
:102CC0000A431A605A6802405A601A680E48024065
:102CD0001A601A680D4802401A605A680C4802408F
:102CE0000F205A60DA6A8243DA621A6B094802409E
:102CF0001A635A6B8A435A6300229A607047C0462F
:102D0000001002400CB8FF08FFFFF6FEFFFFFBFFBC
:102D1000FFFFC0FF2CFEFFFF13488546042001681B
:102D2000090E1F22914205D110480121016010486F
:102D3000002101600F481049104A002302E0D458D6
:102D4000C4500433C4188C42F9D30D4A0D4C0023EF
:102D500001E013600432A242FBD3FFF7ADFF00F0A5
:102D60001BF8FFF78FFCFEE7001800201810024048
:102D70000000014000000020680000200437000827
:102D80006800002034030020FEE70000014B1868B3
:102D90007047C0460400002070B500260C4D0D4C55
:102DA000641BA410A64209D1002600F045FC0A4D80
:102DB0000A4C641BA410A64205D170BDB300EB58A9
:102DC00098470136EEE7B300EB5898470136F2E733
:102DD000FC360008FC360008FC3600080037000806
:102DE000002310B59A4200D110BDCC5CC45401330D
:102DF000F8E703008218934200D17047197001333D
:102E0000F9E7000030B59BB00091049108496D4688
:102E100002910591012182244942E981A400694679
:102E2000AC8100F075F80023009A13701BB030BD20
:102E3000FFFFFF7F10B513000A0001000248006881
:102E4000FFF7E0FF10BDC04604000020F0B58E681B
:102E500085B007000C00039201939E4239D890235D
:102E60008A89DB001A4234D00325096923685B1A7A
:102E70000293636902985D43EB0F5D19019B6D102E
:102E800001331B18AB4200D91D00530532D5290070
:102E9000380000F031FB061E09D10C233B604023B3
:102EA0000120A28940421343A38105B0F0BD029ADC
:102EB0002169FFF795FFA389144A1A408023134321
:102EC000A381029B2661F61826606561019EED1ABA
:102ED000A560019BB34200D21E0032000399206816
:102EE00000F0ADFAA36800209B1BA36023689E1925
:102EF0002660DAE72A00380000F05CFB061EE0D10D
:102F00002169380000F0AEFAC7E7C0467FFBFFFF3B
:102F1000F0B59FB0029005938B890F0016001B0639
:102F200011D50B69002B0ED1402100F0E5FA386075
:102F30003861002805D10C23029A013813601FB0B4
:102F4000F0BD40237B61002306AD6B6120336B76BF
:102F50001033AB7634002378002B47D1A31B0493A6
:102F60000DD0A31B320039000298FFF76FFF431CFE
:102F700000D1B5E06A69049B944663446B61237891
:102F8000002B00D1ACE00122002352426A6002A96A
:102F90005432521801342B60EB60AB601370AB6598
:102FA000584E05222178300000F03EFA621C0028BD
:102FB00020D12968CB0604D5532302AE20309B19BB
:102FC00018700B0704D553232B2002AE9B191870E1
:102FD00023782A2B16D000200A21099B2278303A28
:102FE000092A55D9002815D0099313E0252BB5D00F
:102FF0000134B0E70123801B8340296814000B4390
:103000002B60CDE7059B181D1B680590002B39DB55
:103010000993140023782E2B0BD16378621C2A2B82
:103020003ED1059B02341A1D1B680592002B34DB30
:103030000793354E21780322300000F0F5F900287F
:1030400006D04023801B83402A68013413432B6041
:10305000217806222D48661C297600F0E5F9002823
:1030600046D02B4B002B2FD12968059B0722C90581
:1030700028D59B189343083305936B69039A9B18D3
:103080006B6167E75B42EB6002230B432B60C0E799
:103090004B4301349B180120A0E701235B42C7E7A3
:1030A000002314000A201A006B60217830390929A6
:1030B00003D9002BBDD00792BBE74243013452181D
:1030C0000123F2E70733D5E705AB00933A00114B34
:1030D0002900029800E000BF0390039B0133CCD18C
:1030E000BB890B985B0600D429E70120404226E704
:1030F00005AB00933A00074B2900029800F07AF8DC
:10310000EAE7C046C8360008CE360008D2360008C6
:10311000000000004D2E0008F7B5150001938A68E5
:103120000B6900900C00934200DA130022002B6020
:1031300043321278002A01D001332B6023689B06AA
:1031400002D52B6802332B60062723681F4027D047
:10315000230043331B785A1E93412268920630D4D1
:103160002200019943320098089EB047431C25D0A5
:10317000062320682A68E16803400025042B03D158
:103180008D1AEB43DB171D40A3682269934201DDD2
:103190009B1AED180027BD4220D1002010E0013716
:1031A000E3682A689B1A9F42D2DA2200012319326F
:1031B00001990098089EB047431CF0D1012040427D
:1031C000FEBD3020E1184331087021005A1C453102
:1031D0000978A218433202331170C1E7220001239B
:1031E0001A3201990098089EB047431CE6D0013777
:1031F000D1E70000F0B58BB006920A004332079386
:10320000059004920A7E0C00109B6E2A00D18FE07C
:1032100017D8632A2CD008D8002A00D199E0582A60
:1032200054D026004236327029E0642A01D0692A3F
:10323000F7D121681A68080623D5111D1960156891
:1032400025E0732A00D188E008D86F2A29D0702A97
:10325000E7D1202209680A43226003E0752A20D0C2
:10326000782ADED122007821453211706C4A30E094
:103270000E001A684236111D19601368337001235D
:1032800079E04906D9D5111D19600023D55E002DBE
:1032900003DA2D23049A6D421370624B0A270393BD
:1032A0002FE020681968050603D5081D18600D6811
:1032B00005E04006F9D50D68081D1860ADB2594B00
:1032C000082703936F2A18D00A2716E045310A70A1
:1032D000544A03921A682168101D18601568080680
:1032E00022D5CB0702D52023194321601027002DBA
:1032F00003D1202322689A43226023000022433313
:103300001A706368A360002B5CDB04222168914380
:103310002160002D58D1049E002B64D02600039B11
:1033200042361B7833705EE04806DAD5ADB2D8E796
:1033300009681A68080605D5111D196013686269C5
:103340001A6006E04906F7D5111D19601368A28AB4
:103350001A800023049E236154E01A68111D19602D
:10336000166800216268300000F05EF8002801D085
:10337000801B6060636823610023049A137041E03E
:103380002369320006990598079DA847431C43D03E
:10339000236800259B070FD4099BE06898423DDA1B
:1033A00018003BE022000123193206990598079E78
:1033B000B047431C30D00135E368099A9B1A9D42FF
:1033C000F0DBE9E7002DA9D0049E28003900FCF7C6
:1033D0003DFF039B013E5B5C280033703900FCF726
:1033E000AFFE051EF1D1082F09D12368DB0706D5F2
:1033F00063682269934202DC3023013E3370049BF0
:103400009B1B2361079B09AA00932100069B05983B
:10341000FFF782FE431CB3D1012040420BB0F0BD48
:10342000EA360008D9360008C9B28218904201D1A4
:103430000020704703788B42FBD00130F6E710B5CF
:10344000884202D98B18984208D300239A4207D0A9
:10345000CC5CC4540133F9E78B5C8354013AFBD252
:1034600010BD000070B50500002910D00C1F2368A6
:10347000002B00DAE418280000F0D4F81D4A136885
:10348000002B05D163601460280000F0CCF870BDFB
:10349000A34209D9216860188342F3D118685B6898
:1034A00041182160EEE713005A68002A01D0A242B9
:1034B000F9D919685818A0420BD120680918581872
:1034C00019608242E0D110685268411819605A6050
:1034D000DAE7A04202D90C232B60D5E721686018F7
:1034E000824203D1106852684118216062605C60BA
:1034F000CAE7C04688000020032370B5CD1C9D4359
:10350000083506000C2D1ED20C25A9421DD830000E
:1035100000F088F8254A14682100002919D1244CAC
:103520002368002B03D1300000F06AF820602900E6
:10353000300000F065F8431C2CD10C2330003360C0
:1035400000F071F803E0002DDFDA0C233360002077
:1035500070BD0B685B1B1AD40B2B03D90B60CC1806
:10356000256003E08C420ED163681360300000F0E8
:103570005AF8200007220B30231D9043C31AE7D0CE
:103580005A42E250E4E74B6863600C00EEE70C003F
:103590004968C2E70323C41C9C43A042E0D0211A1F
:1035A000300000F02DF8431CDAD1C6E78800002077
:1035B0008C000020F8B507000D001600002905D189
:1035C0001100FFF799FF04002000F8BD002A03D185
:1035D000FFF748FF3400F7E700F026F82C0086429A
:1035E000F2D931003800FFF787FF041EECD0290024
:1035F0003200FFF7F5FB29003800FFF733FFE3E760
:10360000002370B5064C050008002360FFF73AFB65
:10361000431C03D12368002B00D02B6070BDC04633
:1036200030030020704770470B1F1B68181F002BCA
:1036300001DA0B58C0187047F8B5C046F8BC08BC92
:103640009E467047F8B5C046F8BC08BC9E46704719
:1036500002030405060708090A0B0C0D0E0F1010D3
:103660000102030405060708090A0B0C0D0E0F10D2
:1036700000040802544553540A0D00506F6D6961EF
:10368000722025642025640A0D00AAB406010000FA
:10369000000000000000000000FFFF05ABAAB40618
:1036A000010100000000000000000000FFFF06AB69
:1036B00000000000000000000102030406070809E2
:1036C0000000000001020304232D302B2000686C51
:1036D0004C00656667454647003031323334353635
:1036E000373839414243444546003031323334356E
:0C36F0003637383961626364656600009B
:0436FC00E9000008D9
:04370000C1000008FC
:1037040000127A0008000020000000000000000001
:1037140000000000000000000000000000000000A5
:103724000000000000000000000000000000000095
:103734000000000000000000000000000000000085
:103744000000000000000000000000000000000075
:103754000000000000000000000000000000000065
:0837640000000000000000005D
:0400000508002D19A9
:00000001FF
